:020000040800F2
:10000000604C00209D0100087F100008830F00084D
:100010007D100008A90200085B1200080000000023
:100020000000000000000000000000008310000835
:10003000AB020008000000008110000885100008D5
:10004000B7010008B7010008B7010008B7010008B0
:10005000B7010008B7010008B7010008B7010008A0
:10006000B7010008B7010008B7010008B701000890
:10007000B7010008B7010008B7010008B701000880
:10008000B7010008B7010008B7010008B701000870
:10009000B7010008B7010008B7010008B701000860
:1000A000B70100081D110008B7010008B7010008DA
:1000B000B7010008B7010008B7010008B701000840
:1000C000B7010008B7010008B7010008B701000830
:1000D000B7010008B7010008B7010008B701000820
:1000E000B7010008B7010008B7010008B701000810
:1000F000B7010008B7010008B7010008B701000800
:10010000B7010008B7010008B7010008B7010008EF
:10011000B7010008B7010008B7010008B7010008DF
:10012000B7010008B7010008B7010008B7010008CF
:10013000B7010008B7010008B7010008B7010008BF
:10014000B7010008B7010008B7010008B7010008AF
:10015000B7010008B7010008B7010008B70100089F
:10016000B7010008B7010008B7010008B70100088F
:10017000B7010008B7010008B7010008000000003F
:10018000B7010008B7010008DFF80CD000F07AF8DA
:10019000004800479D130008604C00200648804737
:1001A00006480047FEE7FEE7FEE7FEE7FEE7FEE75C
:1001B000FEE7FEE7FEE7FEE70D11000889010008F3
:1001C0002DE9F05F0546002092469B46884606468C
:1001D000814640241BE0284641464746224600F01F
:1001E00041F853465A46C01A914110D31146184659
:1001F000224600F028F82D1A67EB01084F462246E8
:100200000120002100F01FF817EB00094E41201ECD
:10021000A4F10104DFDC484631462A464346BDE8E6
:10022000F09FD2B201E000F8012B491EFBD27047CB
:100230000022F6E710B513460A4604461946FFF7B2
:10024000F0FF204610BD202A04DB203A00FA02F11C
:10025000002070479140C2F1200320FA03F31943B4
:1002600090407047202A04DB203A21FA02F0002156
:10027000704721FA02F3D040C2F1200291400843B6
:1002800019467047064C074D06E0E06840F0010350
:1002900094E8070098471034AC42F6D3FFF778FF94
:1002A000F484000814850008FEE770472DE9F84F34
:1002B000DFF8B8A1002201250AF1040B03264FF054
:1002C0000F090BF1040E00BF0B6805FA02F423407E
:1002D000A3426FD10F7907F00307012F01D0022F3E
:1002E00016D187684FEA420806FA08FC27EA0C078D
:1002F000D1F80CC00CFA08FC4CEA070CC0F808C096
:100300004768A7430C79C4F3001494403C4344600D
:100310000C79E443A4070AD0C4684FEA420C06FAF9
:100320000CF7BC438F6807FA0CF72743C7600C79BA
:1003300004F00304022C12D1D40800EB840CDCF886
:1003400020405707FF0E09FA07F824EA0804D1F8FD
:10035000108008FA07F848EA0408CCF820800468FE
:100360004FEA420C06FA0CF7BC430F7907F003077B
:1003700007FA0CF7274307604C68E40070D53C4C43
:10038000276847F480472760246822F0030704F4B5
:1003900080440094374C07EB040CDCF808489707BE
:1003A0004FEA177809FA08F7BC43334FB84202D135
:1003B000002724E054E0314FB84201D101271EE06C
:1003C0002F4FB84201D1022719E02E4FB84201D178
:1003D000032714E02C4FB84201D104270FE02B4F24
:1003E000B84201D105270AE0294FB84201D10627BA
:1003F00005E0284FB84201D1072700E0082707FA97
:1004000008F72743CCF80878DAF800405746D1F8C7
:1004100004C09C435FEACC3C00D51C433C60DBF845
:1004200000405F46D1F804C09C435FEA8C3C00D595
:100430001C433C60DEF800407746D1F804C09C4382
:100440005FEACC2C00D51C433C60084F0C373C685D
:10045000D1F804C09C435FEA8C2C00D51C433C605F
:10046000521C102AFFF430AFBDE8F88F003C014069
:1004700044380240003001400000024000040240C5
:1004800000080240000C024000100240001402402C
:1004900000180240001C02400AB181617047090443
:1004A000FBE700000148806870470000040000205E
:1004B000024881680278114481607047040000207E
:1004C0000B4810B5016841F400710160016841F406
:1004D00080610160016841F480710160032000F0D7
:1004E0006FF8002000F006F800F024F8002010BD9E
:1004F000003C024070B50D4D04464FF47A712878E7
:10050000B1FBF0F00A490968B1FBF0F000F0EAFA3B
:1005100048B9102C07D200222146501E00F030F8B6
:1005200000206C6070BD012070BD00000400002040
:10053000100000200A4808B5016841F480410160BC
:10054000006800F4804000900548001F016841F0F9
:1005500080510160006800F08050009008BD0000EC
:1005600044380240002809DB00F01F0201219140BD
:100570004009800000F1E020C0F800117047000041
:10058000F0B40E4B1B680C46C3F30223C3F10705FE
:10059000042D00D90425191D072901D2002300E0EC
:1005A000DB1E012606FA05F1491E214099409E40B6
:1005B000761E16403143F0BC00F050BE0CED00E05A
:1005C000064900F0070208684FF6FF03184040EAAA
:1005D0000220034A10430860704700000CED00E061
:1005E0000000FA052DE9F0470E46050065D0DFF85A
:1005F0001481D8F80000F7B200F00700B04207D22B
:1006000088F80070D8F8000000F00700B04254D11C
:1006100028683D4C810712D5400703D5206840F477
:10062000E05020602878000703D5206840F460403F
:1006300020602068A96820F0F00008432060287836
:10064000C0072DD0304968680839012812D0022827
:1006500013D0032811D00968890700292DDA2168F1
:1006600021F0030101432160FFF71CFF814641F2A5
:10067000883A0EE009688903EFE709688901ECE729
:10068000FFF710FFA0EB0901514502D90320BDE897
:10069000F0872068696800F00C00B0EB810FEFD1A3
:1006A000D8F80010404601F00701B14207D90770A1
:1006B000006800F00700B04201D00120E7E7287889
:1006C000400705D52068E96820F4E0500843206021
:1006D0002878000706D52068296920F4604040EAA0
:1006E000C100206000F018F82168084AC1F3031126
:1006F000515CC8400649086006480068FFF7FAFEEA
:100700000020C4E7003C024008380240E4840008AE
:100710001000002008000020154810B5006810F0F7
:100720000C02144813D04110042A0FD0082A0ED10D
:100730000F4C241F2268236802F03F025B0207D59A
:100740002068C0F38810A0FB010106E0084610BD38
:100750002168C1F38811A1FB00010023FFF730FDE0
:100760002168C1F30141491C4900B0FBF1F010BD03
:10077000083802400024F4002DE9F84F04006ED040
:100780002078DFF84C93C007A9F104054AD009F19D
:1007900004000168C1F38101012908D00068C0F399
:1007A000810002280AD1D9F80000400206D5286845
:1007B000800337D560680028E1D033E06068B0F589
:1007C000803F10D0B0F5A02F286810D020F48030E2
:1007D0002860286820F4802028606068A8B1FFF7AE
:1007E00061FE06460DE0286840F48030F4E740F4EE
:1007F00080202860F7E700BFFFF754FE801B6428C5
:1008000073D828688003F7D50CE0FFF74BFE064647
:1008100005E000BFFFF746FE801B6428F0D828687B
:100820008003F7D42078DFF8AC8280074FF0000A0D
:100830003ED5A748001D016811F00C0F08D00068D4
:10084000C0F3810002280BD1D9F80000400207D480
:100850002868800716D5E068012800D112E033E14E
:10086000E068B8B10120C8F80000FFF71BFE06469B
:1008700005E000BFFFF716FE801B0228C0D82868DD
:100880008007F7D52868216920F0F80040EAC10008
:1008900028600DE0C8F800A0FFF704FE064604E05B
:1008A000FFF700FE801B02281FD828688007F7D4B6
:1008B0002078000722D5864F87486169703771B16B
:1008C00001210160FFF7EEFD064604E0FFF7EAFDB7
:1008D000801B022809D838688007F7D50EE0C0F8D9
:1008E00000A0FFF7DFFD064605E082E0FFF7DAFD36
:1008F000801B02287DD838688007F7D4207840070D
:1009000068D5DFF8CCB100270BF13C0BDBF8000019
:10091000C0000BD4DBF8001041F08051CBF8001080
:10092000DBF80000012700F0805000906B4E30682B
:10093000C00510D4306840F480703060FFF7B2FD1D
:10094000009005E0FFF7AEFD0099401A022850D84C
:100950003068C005F6D55E4EA0686C3601280FD011
:100960000528306810D020F001003060306820F099
:1009700004003060A068B8B1FFF794FD00900FE06C
:10098000306840F00100F4E740F004003060F7E721
:10099000FFF788FD0099411A41F28830814266D8FC
:1009A00030688007F4D50EE0FFF77CFD009007E08B
:1009B000FFF778FD0099411A41F28830814256D8FC
:1009C00030688007F4D42FB1DBF8001021F080519B
:1009D000CBF80010A069C8B33D49091D0968C1F3EF
:1009E000810102294AD00228504607D0C8F8600089
:1009F00000E03CE0FFF756FD04463BE04746C8F800
:100A00006000FFF74FFD064605E000BFFFF74AFD17
:100A1000801B02282BD828688001F7D4D4E907016D
:100A20000843A16A2E4A490802EB0141626A41EA81
:100A30008211084394F82C1040EA0161C9F80010B3
:100A400001203866FFF72EFD044606E03EE000BFB9
:100A5000FFF728FD001B022809D828688001F7D578
:100A600034E000BFFFF71EFD001B022802D903205F
:100A7000BDE8F88F28688001F4D427E00128F7D07A
:100A8000D9F80000E26900F4800191421CD1226A89
:100A900000F03F01914217D147F6C071626A0140F0
:100AA000B1EB821F10D1A26A4FF0FF3300F4403146
:100AB00003EB5202B1EB024F06D194F82C1000F078
:100AC0007060B0EB016F01D00120D1E70020CFE7CB
:100AD0000438024000004742800E47420070004048
:100AE0000000FFFF10B5401EB0F1807F01D3012050
:100AF00010BD4FF0E02460610F21601700F0AEFBE5
:100B00000020A06107202061002010BD70477047C1
:100B100070B590F83C20012A32D0012480F83C4086
:100B2000022280F83D2003685A689D6822F0700612
:100B30000A6832435A60134B02689A4214D0B2F1E9
:100B4000804F11D0104B9A420ED0104B9A420BD0CE
:100B50000F4B9A4208D00F4B9A4205D00E4B9A4247
:100B600002D00E4B9A4204D1496825F08003194304
:100B7000916080F83D40002180F83C10084670BD2F
:100B8000022070BD00000140000400400008004049
:100B9000000C0040000401400040014000180040EB
:100BA00010B5040003D094F83D0010B107E0012017
:100BB00010BD002084F83C00204600F01FF8022001
:100BC00084F83D00211D206800F0AEFA012084F871
:100BD000460084F83E0084F83F0084F8400084F822
:100BE000410084F8420084F8430084F8440084F80B
:100BF000450084F83D00002010BD000008B50068E5
:100C00000B49884212D10B48016841F00101016093
:100C10000068002200F00100009011461920FFF743
:100C2000AFFCBDE808401920FFF79CBC08BD0000E0
:100C3000000001404438024090F83D10012901D0E5
:100C400001207047022180F83D100168CA6842F017
:100C50000102CA6000681149884214D0B0F1804F87
:100C600011D00F4988420ED00E4988420BD00E4950
:100C7000884208D00D49884205D00D49884202D0EB
:100C80000C49884204D1816801F00701062903D08C
:100C9000016841F00101016000207047000001403F
:100CA0000004004000080040000C00400004014027
:100CB000004001400018004070B5044690F83C0028
:100CC000012817D0012584F83C50022084F83D000B
:100CD0002068826822F0770222F47F4282600868EE
:100CE000502830D00DDC20284DD005DC98B31028DA
:100CF0003BD148E0022070BD302844D0402834D198
:100D000039E0602828D0702806D0B0F5805F2CD05C
:100D1000B0F5005F29D10AE0CB68D1E90121206854
:100D200000F066FA2068816841F0770109E0CB683D
:100D3000D1E90121206800F05BFA2068816841F464
:100D40008041816011E0CA684968206800F062FA59
:100D50005021206807E016E0CA684968206800F062
:100D60006AFA6021206800F04DFA84F83D500020B6
:100D700084F83C0070BDCA684968206800F04AFAEF
:100D800040212068EFE7226801461046EBE77047F4
:100D900070B50446006801694FF00005C943890732
:100DA00015D4C168C943890711D4E91E0161012026
:100DB0002077206880698007204602D0FFF7E7FF90
:100DC00004E000F098F8204600F096F825772068B7
:100DD0000169C943490717D4C168C943490713D4F6
:100DE0006FF004010161022020772068806910F40F
:100DF000407F204602D0FFF7CAFF04E000F07BF8F6
:100E0000204600F079F8257720680169C943090771
:100E100016D4C168C943090712D46FF008010161F3
:100E2000042020772068C0698007204602D0FFF7A1
:100E3000AEFF04E000F05FF8204600F05DF8257793
:100E400020680169C943C90617D4C168C943C906E6
:100E500013D46FF010010161082020772068C06969
:100E600010F4407F204602D0FFF791FF04E000F02D
:100E700042F8204600F040F8257720680169C94310
:100E8000C90708D1C168C943C90704D1891E0161D6
:100E9000204600F033F820680169C943090609D4E7
:100EA000C168C943090605D46FF08001016120467D
:100EB000FFF72CFE20680169C943490609D4C168BF
:100EC000C943490605D46FF040010161204600F096
:100ED00057F820680169C94389060BD4C168C94322
:100EE000890607D46FF0200101612046BDE87040FB
:100EF000FFF70DBE70BD704770470000F0B5006889
:100F0000194DA8422ED1194ADFF864C00020147888
:100F10001849C4F3021304F00F0404EB84060527F8
:100F20000CEBC616B3FBF7FC07FB1C3C06EBCC1C1A
:100F30001CF800C0C1F800C0D1F800C04CF0400C53
:100F4000C1F800C0401C8028ECDB0B48416941F02F
:100F500010014161094931F81310E96244611078C8
:100F6000401C1070F0BD0000000001400000002097
:100F700014200020140C024000000240D474000829
:100F80007047FEE7F0B587B014216846FFF750F9C7
:100F900022480024016841F080010160016801F0ED
:100FA00080010591016841F001010160016801F0D3
:100FB00001010591016841F0080101600068184EC7
:100FC00000F00800059000221F213046FFF764FA68
:100FD000144F00227F213846FFF75EFA0F200125CB
:100FE000CDE900050220CDE9024069463046FFF711
:100FF0005DF910200090CDE9015469463046039414
:10100000FFF754F97F200090CDE901546946384636
:101010000394FFF74BF907B0F0BD000030380240F1
:1010200000000240000C024010B586B000241248B7
:10103000009401940294039404940E490594C0E929
:101040000014102181602821C0E9031444618461E7
:10105000FFF7A6FD4FF48050009069460648FFF761
:101060002BFE049404A904480594FFF751FD06B033
:1010700010BD00000000014014480020FEE7FEE71C
:1010800070477047FFF714BA30B593B03021684607
:10109000FFF7CEF814210CA8FFF7CAF8194800256D
:1010A000016841F080510160006800F080501190AB
:1010B0001548016841F4804101600068022400F491
:1010C0008040119001200090000401908001CDE942
:1010D000064008200890C020CDE9090404200B90A8
:1010E0006846FFF749FB0CA90F2081E831004FF457
:1010F000A0500F90E002109003210CA8FFF772FAA5
:1011000013B030BD40380240007000400248016812
:1011100041F470010160704788ED00E00148FFF77D
:1011200037BE000014480020F0B50268254C264D5B
:10113000264E274F274B4FF0804CA04209D06045E8
:1011400007D0A84205D0B04203D0B84201D098429F
:1011500004D122F0700E4A6842EA0E02A0421BD06F
:10116000604519D0A84217D0B04215D0B84213D06C
:10117000984211D0184DA8420ED0184DA8420BD05D
:10118000174DA84208D0174DA84205D0164DA842C9
:1011900002D0164DA84203D122F44075CA682A43F2
:1011A0004D6922F080022A4302608A68C2620A689E
:1011B0008262A04201D0984201D1096901630121F4
:1011C0004161F0BD00000140000400400008004003
:1011D000000C004000040140004001400044014078
:1011E0000048014000180040001C00400020004062
:1011F00010B5846842EA032224F47F440A43224360
:10120000826010BD826822F070020A4342F007013A
:101210008160704710B5036A046A24F00104046217
:10122000846924F0F00444EA021423F00A020A4319
:101230008461026210BD10B5036A23F010030362DB
:101240008369046A23F4704343EA023224F0A00362
:1012500043EA01118261016210BDFEE70907090E30
:10126000002804DB00F1E02080F80014704700F053
:101270000F0000F1E02080F8141D704702E008C85C
:10128000121F08C1002AFAD170477047002001E000
:1012900001C1121F002AFBD1704700002DE9F04761
:1012A00000258A462C46DFF83490DDF8208011E0D6
:1012B00004EB0A07FFB2002109EB072C07E00E1828
:1012C000F7B238F81560491C2CF817606D1C914274
:1012D000F5DB641C9C42EBDBBDE8F08714000020CA
:1012E0002DE9F0470023DFF8B0901C46012209F5F4
:1012F000005A984601E00024012203EB83050AEB23
:10130000C511002009EB032701EBC41101F800808F
:1013100037F8106016EAC22F01D001250D5407EBF3
:10132000400505F580552D8815EAC22F05D011F826
:1013300000C04CF0020C01F800C016EA421F05D0B4
:1013400011F800C04CF0040C01F800C015EA421F6F
:1013500005D011F800C04CF0080C01F800C016428E
:1013600003D00E5C46F010060E54154203D00D5CFF
:1013700045F020050D54401CC0B28028C6D350064D
:10138000641C020EE4B2052CB7D35B1CDBB2102B3D
:10139000B1D3BDE8F08700001400002008B5FFF7C6
:1013A0008FF8FFF771FEFFF7EDFDFFF73DFE0748F1
:1013B000FFF742FC064C40222023002110460094F7
:1013C000FFF76CFFFFF78CFFF5E7000014480020E3
:1013D000E47400080000000000000000183C3C1805
:1013E00018001800363600000000000036367F3640
:1013F0007F3636000C3E031E301F0C00006333188E
:101400000C6663001C361C6E3B336E000606030040
:1014100000000000180C0606060C1800060C181830
:10142000180C060000663CFF3C660000000C0C3FF8
:101430000C0C000000000000000C0C060000003F37
:101440000000000000000000000C0C006030180CD0
:10145000060301003E63737B6F673E000C0E0C0CAD
:101460000C0C3F001E33301C06333F001E33301C73
:1014700030331E00383C36337F3078003F031F3056
:1014800030331E001C06031F33331E003F33301859
:101490000C0C0C001E33331E33331E001E33333E40
:1014A00030180E00000C0C00000C0C00000C0C009E
:1014B000000C0C06180C0603060C180000003F0078
:1014C000003F0000060C1830180C06001E333018C0
:1014D0000C000C003E637B7B7B031E000C1E333331
:1014E0003F3333003F66663E66663F003C6603035B
:1014F00003663C001F36666666361F007F46161E72
:1015000016467F007F46161E16060F003C66030334
:1015100073667C003333333F333333001E0C0C0CC3
:101520000C0C1E007830303033331E006766361ED8
:10153000366667000F06060646667F0063777F7F84
:101540006B63630063676F7B736363001C36636365
:1015500063361C003F66663E06060F001E333333BB
:101560003B1E38003F66663E366667001E33070E38
:1015700038331E003F2D0C0C0C0C1E00333333335C
:1015800033333F0033333333331E0C006363636BF9
:101590007F7763006363361C1C3663003333331E6E
:1015A0000C0C1E007F6331184C667F001E06060679
:1015B00006061E0003060C18306040001E1818189E
:1015C00018181E00081C3663000000000000000010
:1015D000000000FF0C0C18000000000000001E308E
:1015E0003E336E000706063E66663B0000001E3373
:1015F00003331E003830303E33336E0000001E339C
:101600003F031E001C36060F06060F0000006E3357
:10161000333E301F0706366E666667000C000E0C00
:101620000C0C1E00300030303033331E0706663697
:101630001E3667000E0C0C0C0C0C1E000000337FD5
:101640007F6B630000001F333333330000001E3311
:1016500033331E0000003B66663E060F00006E330B
:10166000333E307800003B6E66060F0000003E03FC
:101670001E301F00080C3E0C0C2C180000003333E9
:1016800033336E0000003333331E0C000000636BF5
:101690007F7F3600000063361C3663000000333362
:1016A000333E301F00003F190C263F00380C0C075A
:1016B0000C0C38001818180018181800070C0C38F3
:1016C0000C0C07006E3B0000000000000000000052
:1016D000000000000000000000000000000000000A
:1016E00000000000000000000000000000000000FA
:1016F00000000000000000000000000000000000EA
:1017000000000000000000000000000000000000D9
:1017100000000000000000000000000000000000C9
:1017200000000000000000000000000000000000B9
:1017300000000000000000000000000000000000A9
:101740000000000000000000000000000000000099
:101750000000000000000000000000000000000089
:101760000000000000000000000000000000000079
:101770000000000000000000000000000000000069
:101780000000000000000000000000000000000059
:101790000000000000000000000000000000000049
:1017A0000000000000000000000000000000000039
:1017B0000000000000000000000000000000000029
:1017C0000000000000000000000000000000000019
:1017D0000000000000000000000000000000000009
:1017E0003FF03FF0F03CF03CF03CF03CF3FCF3FC0D
:1017F000F3FCF3FCF3FCF3FCF3F0F3F0F000F00087
:101800003FF03FF00000000000000000000000007A
:101810000000000000000000000000001FF83FFC76
:10182000700EE007CC33CC33C003C003C003C00349
:10183000CC33CE73C7E3C3C3C003C003E007700E4D
:101840003FFC1FF800000000000000000000000046
:101850000000000000000000000000001FF83FFC36
:101860007FFEFFFFF3CFF3CFFFFFFFFFFFFFFFFF81
:10187000F3CFF18FF81FFC3FFFFFFFFFFFFF7FFE5D
:101880003FFC1FF800000000000000000000000006
:101890000000000000000000000000000000000048
:1018A0000000000038707CF8FFFCFFFCFFFCFFFC30
:1018B000FFFCFFFC7FF87FF83FF01FE00FC00780C0
:1018C0000300000000000000000000000000000015
:1018D0000000000000000000000000000000000008
:1018E00000000000030007800FC01FE03FF07FF8FA
:1018F000FFFCFFFC7FF83FF01FE00FC007800300F4
:1019000000000000000000000000000000000000D7
:1019100000000000000000000000000000000000C7
:1019200003C003C00FF00FF00FF00FF0FC3FFC3FBF
:10193000FC3FFC3FFC3FFC3F03C003C003C003C0AF
:101940000FF00FF000000000000000000000000099
:101950000000000000000000000000000000000087
:10196000018003C007E00FF01FF83FFC7FFEFFFF80
:10197000FFFFFFFFFFFF7FFE3BDC03C003C003C090
:101980000FF00FF000000000000000000000000059
:101990000000000000000000000000000000000047
:1019A00000000000000000000000000003C007E08D
:1019B0000FF00FF00FF00FF007E003C00000000081
:1019C0000000000000000000000000000000000017
:1019D00000000000FFFFFFFFFFFFFFFFFFFFFFFF13
:1019E000FFFFFFFFFFFFFFFFFFFFFFFFFC3FF81FB1
:1019F000F00FF00FF00FF00FF81FFC3FFFFFFFFF9D
:101A0000FFFFFFFFFFFFFFFFFFFFFFFFFFFFFFFFE6
:101A1000FFFFFFFF000000000000000000000000CA
:101A200000000000000000000FF01FF83C3C381CD4
:101A3000300C300C300C300C381C3C3C1FF80FF0D4
:101A40000000000000000000000000000000000096
:101A500000000000FFFFFFFFFFFFFFFFFFFFFFFF92
:101A6000FFFFFFFFFFFFFFFFF81FF00FE3C7C7E314
:101A7000CFF3CFF3CFF3CFF3C7E3E3C7F00FF81FF4
:101A8000FFFFFFFFFFFFFFFFFFFFFFFFFFFFFFFF66
:101A9000FFFFFFFF000000000000000003FC03FC4C
:101AA000007C00FC01FC03EC07CC0F8C3FC07FE006
:101AB000F9F0F0F0F0F0F0F0F0F0F0F0F0F0F9F014
:101AC0007FE03FC0000000000000000000000000B8
:101AD0000000000000000000000000000FF01FF8F0
:101AE0003E7C3C3C3C3C3C3C3C3C3C3C3C3C3E7CB2
:101AF0001FF80FF003C003C03FFC3FFC03C003C04E
:101B000003C003C00000000000000000000000004F
:101B10000000000000000000000000000FFF0FFFA9
:101B20000F0F0F0F0FFF0FFF0F000F000F000F0021
:101B30000F000F000F000F003F003F00FF00FF00ED
:101B4000FC00FC000000000000000000000000009D
:101B50000000000000000000000000003FFF3FFF09
:101B60003C0F3C0F3FFF3FFF3C0F3C0F3C0F3C0F37
:101B70003C0F3C0F3C0F3C0F3C3F3C3FFC3FFC3FCD
:101B8000FC3CFC3CF000F000000000000000000005
:101B90000000000000000000000000000000000045
:101BA00003C003C003C003C0F3CFFBDF1FF80FF077
:101BB000FC3FFC3F0FF01FF8FBDFF3CF03C003C077
:101BC00003C003C00000000000000000000000008F
:101BD00000000000000000008000C000E000F000F5
:101BE000F800FC00FE00FF00FF80FFC0FFFCFFFCD0
:101BF000FFC0FF80FF00FE00FC00F800F000E000E6
:101C0000C000800000000000000000000000000094
:101C100000000000000000000004000C001C003C5C
:101C2000007C00FC01FC03FC07FC0FFCFFFCFFFC3C
:101C30000FFC07FC03FC01FC00FC007C003C001CCA
:101C4000000C000400000000000000000000000084
:101C5000000000000000000000000000018003C040
:101C600007E00FF01FF83FFC03C003C003C003C030
:101C700003C003C03FFC1FF80FF007E003C0018062
:101C80000000000000000000000000000000000054
:101C90000000000000000000000000003C3C3C3C54
:101CA0003C3C3C3C3C3C3C3C3C3C3C3C3C3C3C3C74
:101CB0003C3C3C3C3C3C3C3C000000003C3C3C3C54
:101CC0003C3C3C3C00000000000000000000000024
:101CD0000000000000000000000000003FFF7FFF48
:101CE000FBCFF3CFF3CFF3CFF3CFFBCF7FCF3FCFFC
:101CF00003CF03CF03CF03CF03CF03CF03CF03CF54
:101D000003CF03CF0000000000000000000000002F
:101D100000000000000000003FF03FF0F03CF03C0D
:101D20003C003C000FC00FC03CF03CF0F03CF03CED
:101D3000F03CF03C3CF03CF00FC00FC000F000F075
:101D4000F03CF03C3FF03FF00000000000000000DD
:101D50000000000000000000000000000000000083
:101D60000000000000000000000000000000000073
:101D700000000000FFFCFFFCFFFCFFFCFFFCFFFC81
:101D8000FFFCFFFC0000000000000000000000005D
:101D9000000000000000000000000000018003C0FF
:101DA00007E00FF01FF83FFC03C003C003C003C0EF
:101DB00003C003C03FFC1FF80FF007E003C0018021
:101DC0003FFC3FFC0000000000000000000000009D
:101DD000000000000000000000000000018003C0BF
:101DE00007E00FF01FF83FFC03C003C003C003C0AF
:101DF00003C003C003C003C003C003C003C003C0CB
:101E000003C003C00000000000000000000000004C
:101E100000000000000000000000000003C003C03C
:101E200003C003C003C003C003C003C003C003C09A
:101E300003C003C003C003C03FFC1FF80FF007E05E
:101E400003C001800000000000000000000000004E
:101E50000000000000000000000000000000000082
:101E6000000000000000000001C000E00070003829
:101E7000FFFCFFFC0038007000E001C00000000023
:101E80000000000000000000000000000000000052
:101E90000000000000000000000000000000000042
:101EA00000000000000000000E001C003800700060
:101EB000FFFCFFFC700038001C000E00000000005A
:101EC0000000000000000000000000000000000012
:101ED0000000000000000000000000000000000002
:101EE000000000000000000000000000F000F00012
:101EF000F000F000F000F000FFFCFFFC000000002C
:101F000000000000000000000000000000000000D1
:101F100000000000000000000000000000000000C1
:101F20000000000000000000084018603870787859
:101F3000FFFCFFFC78783870186008400000000053
:101F40000000000000000000000000000000000091
:101F50000000000000000000000000000000000081
:101F60000000000003000300078007800FC00FC0BF
:101F70001FE01FE03FF03FF07FF87FF8FFFCFFFC21
:101F80000000000000000000000000000000000051
:101F90000000000000000000000000000000000041
:101FA00000000000FFFCFFFC7FF87FF83FF03FF0EF
:101FB0001FE01FE00FC00FC0078007800300030071
:101FC0000000000000000000000000000000000011
:101FD0000000000000000000000000000000000001
:101FE00000000000000000000000000000000000F1
:101FF00000000000000000000000000000000000E1
:1020000000000000000000000000000000000000D0
:1020100000000000000000000000000003C007E016
:102020000FF00FF00FF00FF00FF00FF007E007E0E8
:1020300007E003C003C003C00000000003C003C0EA
:1020400003C003C00000000000000000000000000A
:1020500000000000000000003C3C3C3C3C3C3C3CA0
:102060003C3C1C380C300000000000000000000068
:102070000000000000000000000000000000000060
:102080000000000000000000000000000000000050
:102090000000000000000000000000000000000040
:1020A0003CF03CF03CF03CF0FFFCFFFC3CF03CF032
:1020B0003CF03CF03CF03CF0FFFCFFFC3CF03CF022
:1020C0003CF03CF0000000000000000000000000B8
:1020D0000000000007800780078007803FF07FF83E
:1020E000F87CF03CF01CF000F000F8007FF03FF8C6
:1020F000007C003C003C003C003CE03CF03CF87CB8
:102100007FF83FF00780078007800780000000000D
:1021100000000000000000000000000000000000BF
:102120007878FC78CCF0CCF0FDE079E003C003C017
:10213000078007800F000F001E781EFC3CCC3CCCB3
:1021400078FC78780000000000000000000000002B
:102150000000000000000000000000000FC01FE0B1
:102160003CF03CF03CF03CF01DE01FC03F1C7FBC4D
:10217000FBF8F1F0F0F0F0E0F0E0F0E0F0F0F9F072
:102180007FF83F3C0000000000000000000000005D
:1021900000000000000000000F000F000F001F00F3
:1021A0003E003C00000000000000000000000000B5
:1021B000000000000000000000000000000000001F
:1021C000000000000000000000000000000000000F
:1021D000000000000000000000000000007000F09F
:1021E00001E003C0078007800F000F000F000F0001
:1021F0000F000F000F000F000780078003C001E0F1
:1022000000F000700000000000000000000000006E
:102210000000000000000000000000000E000F00A1
:10222000078003C001E001E000F000F000F000F0E2
:1022300000F000F000F000F001E001E003C00780D2
:102240000F000E0000000000000000000000000071
:10225000000000000000000000000000000000007E
:10226000000000000000000038703CF01FE00FC0CC
:102270007FF8FFFC7FF80FC01FE03CF038700000D3
:10228000000000000000000000000000000000004E
:10229000000000000000000000000000000000003E
:1022A0000000000000000000078007800780078012
:1022B0007FF87FF87FF8078007800780078000009D
:1022C000000000000000000000000000000000000E
:1022D00000000000000000000000000000000000FE
:1022E00000000000000000000000000000000000EE
:1022F00000000000000000000000000003C003C058
:1023000003C007C00F800F000000000000000000A5
:1023100000000000000000000000000000000000BD
:1023200000000000000000000000000000000000AD
:10233000FFFCFFFCFFFC00000000000000000000AC
:10234000000000000000000000000000000000008D
:10235000000000000000000000000000000000007D
:10236000000000000000000000000000000000006D
:1023700000000000000000000000000003C003C0D7
:1023800003C003C0000000000000000000000000C7
:10239000000000000000000000000000003C003CC5
:1023A0000078007800F000F001E001E003C003C015
:1023B000078007800F000F001E001E003C003C003D
:1023C00078007800F000F00000000000000000003D
:1023D0000000000000000000000000001FE03FF0CF
:1023E0007CF8F87CF03CF03CF03CF33CF7BCF7BCEC
:1023F000F7BCF7BCF33CF03CF03CF03CF87C7CF8DC
:102400003FF01FE00000000000000000000000009E
:1024100000000000000000000000000003C007C032
:102420000FC01FC03FC003C003C003C003C003C030
:1024300003C003C003C003C003C003C003C003C084
:102440003FFC3FFC00000000000000000000000016
:102450000000000000000000000000003FF07FF8D6
:10246000F87CF03CE03C003C007C00F801F003E02C
:1024700007C00F801F003E007C00F800F03CF03CDD
:10248000FFFCFFFC00000000000000000000000056
:102490000000000000000000000000003FF07FF896
:1024A000F87CF03C003C003C003C00780FF00FF062
:1024B0000078003C003C003C003C003CF03CF87CD8
:1024C0007FF83FF000000000000000000000000066
:1024D00000000000000000000000000000F001F01B
:1024E00003F007F00FF01FF03EF07CF0F8F0F0F092
:1024F000FFFCFFFC00F000F000F000F000F000F046
:1025000003FC03FC000000000000000000000000CD
:10251000000000000000000000000000FFFCFFFCC5
:10252000F000F000F000F000F000F000FFF0FFF825
:10253000007C003C003C003C003C003CF03CF87C53
:102540007FF83FF0000000000000000000000000E5
:102550000000000000000000000000000FF01FF06D
:102560003E007C00F800F000F000F000FFF0FFF803
:10257000F87CF03CF03CF03CF03CF03CF03CF87C6B
:102580007FF83FF0000000000000000000000000A5
:10259000000000000000000000000000FFFCFFFC45
:1025A000F03CF03C003C003C007C00F801F003E013
:1025B00007C00F800F000F000F000F000F000F006B
:1025C0000F000F00000000000000000000000000ED
:1025D0000000000000000000000000003FF07FF855
:1025E000F87CF03CF03CF03CF03C78783FF03FF079
:1025F0007878F03CF03CF03CF03CF03CF03CF87C6F
:102600007FF83FF000000000000000000000000024
:102610000000000000000000000000003FF07FF814
:10262000F87CF03CF03CF03CF03CF87C7FFC3FFC5C
:10263000003C003C003C003C003C007C00F801F009
:102640003FE03FC00000000000000000000000006C
:10265000000000000000000000000000000000007A
:102660000000000003C003C003C003C0000000005E
:10267000000000000000000003C003C003C003C04E
:10268000000000000000000000000000000000004A
:10269000000000000000000000000000000000003A
:1026A0000000000003C003C003C003C0000000001E
:1026B00000000000000000000000000003C003C094
:1026C00003C007C00F800F000000000000000000E2
:1026D00000000000000000000000000000000000FA
:1026E000003C007C00F801F003E007C00F801F00F1
:1026F0003E003E001F000F8007C003E001F000F81D
:10270000007C003C00000000000000000000000011
:1027100000000000000000000000000000000000B9
:1027200000000000000000000000FFFCFFFCFFFCB8
:10273000000000000000FFFCFFFCFFFC00000000A8
:102740000000000000000000000000000000000089
:102750000000000000000000000000000000000079
:102760003C003E001F000F8007C003E001F000F8AE
:10277000007C007C00F801F003E007C00F801F0020
:102780003E003C00000000000000000000000000CF
:102790000000000000000000000000003FF07FF893
:1027A000F87CF03CF03CF03C003C007C00F801F090
:1027B00003E003C003C003C00000000003C003C067
:1027C00003C003C000000000000000000000000083
:1027D00000000000000000000000000000000000F9
:1027E0003FF07FF8F87CF03CF03CF03CF1FCF3FC6F
:1027F000F3FCF3FCF3FCF3FCF3F0F1F0F000F80071
:102800007FF03FF00000000000000000000000002A
:10281000000000000000000000000000030007802E
:102820000FC01FE03FF07CF8F87CF03CF03CF03C3F
:10283000FFFCFFFCF03CF03CF03CF03CF03CF03C9A
:10284000F03CF03C00000000000000000000000030
:10285000000000000000000000000000FFF0FFF892
:102860003C7C3C3C3C3C3C3C3C3C3C783FF03FF0BE
:102870003C783C3C3C3C3C3C3C3C3C3C3C3C3C7C1C
:10288000FFF8FFF000000000000000000000000062
:102890000000000000000000000000001FF03FF8F2
:1028A0007C7CF83CF01CF000F000F000F000F00040
:1028B000F000F000F000F000F000F01CF83C7C7C30
:1028C0003FF81FF0000000000000000000000000C2
:1028D000000000000000000000000000FFC0FFE05A
:1028E0003CF03C783C783C3C3C3C3C3C3C3C3C3CFC
:1028F0003C3C3C3C3C3C3C3C3C3C3C783C783CF0EC
:10290000FFE0FFC000000000000000000000000029
:10291000000000000000000000000000FFFCFFFCC1
:102920003C3C3C1C3C0C3C003CC03CC03FC03FC05D
:102930003CC03CC03C003C003C003C0C3C1C3C3CD3
:10294000FFFCFFFC00000000000000000000000091
:10295000000000000000000000000000FFFCFFFC81
:102960003C3C3C1C3C0C3C003CC03CC03FC03FC01D
:102970003CC03CC03C003C003C003C003C003C00F7
:10298000FF00FF0000000000000000000000000049
:102990000000000000000000000000001FF03FF8F1
:1029A0007C7CF83CF01CF000F000F000F000F0003F
:1029B000F1FCF1FCF03CF03CF03CF03CF83C7C7C61
:1029C0003FFC1FEC000000000000000000000000C1
:1029D000000000000000000000000000F03CF03C9F
:1029E000F03CF03CF03CF03CF03CF03CFFFCFFFCE9
:1029F000F03CF03CF03CF03CF03CF03CF03CF03C77
:102A0000F03CF03C0000000000000000000000006E
:102A10000000000000000000000000001FE01FE0B8
:102A2000078007800780078007800780078007806E
:102A3000078007800780078007800780078007805E
:102A40001FE01FE000000000000000000000000088
:102A500000000000000000000000000003FC03FC78
:102A600000F000F000F000F000F000F000F000F0E6
:102A700000F000F0F0F0F0F0F0F0F0F0F0F0F9F02D
:102A80007FE03FC0000000000000000000000000E8
:102A9000000000000000000000000000FC3CFC3CC6
:102AA0003C3C3C3C3C3C3C7C3CF83DF03FE03FC087
:102AB0003FC03FE03DF03CF83C7C3C3C3C3C3C3C77
:102AC000FC3CFC3C00000000000000000000000096
:102AD000000000000000000000000000FF00FF00F8
:102AE0003C003C003C003C003C003C003C003C0006
:102AF0003C003C003C003C003C003C0C3C1C3C3C92
:102B0000FFFCFFFC000000000000000000000000CF
:102B1000000000000000000000000000F03CF03C5D
:102B2000F87CF87CFCFCFCFCFFFCFFFCFFFCFFFCE1
:102B3000F7BCF7BCF33CF33CF03CF03CF03CF03C21
:102B4000F03CF03C0000000000000000000000002D
:102B5000000000000000000000000000F03CF83C15
:102B6000F83CFC3CFC3CFE3CFE3CFF3CFF3CF7BC24
:102B7000F7BCF3FCF3FCF1FCF1FCF0FCF0FCF07CA6
:102B8000F07CF03C000000000000000000000000AD
:102B90000000000000000000000000003FF07FF88F
:102BA000F87CF03CF03CF03CF03CF03CF03CF03C7D
:102BB000F03CF03CF03CF03CF03CF03CF03CF87C6D
:102BC0007FF83FF00000000000000000000000005F
:102BD000000000000000000000000000FFF0FFF80F
:102BE0003C7C3C3C3C3C3C3C3C3C3C7C3FF83FF02F
:102BF0003C003C003C003C003C003C003C003C00F5
:102C0000FF00FF00000000000000000000000000C6
:102C10000000000000000000000000003FF07FF80E
:102C2000F87CF03CF03CF03CF03CF03CF03CF03CFC
:102C3000F03CF03CF03CF03CF33CF3BCF3FCF9FC22
:102C40007FF83FF000E000F0007C003C0000000056
:102C5000000000000000000000000000FFF0FFF88E
:102C60003C7C3C3C3C3C3C3C3C3C3C7C3FF83FF0AE
:102C70003FE03DF03CF83C7C3C3C3C3C3C3C3C3C3C
:102C8000FC3CFC3C000000000000000000000000D4
:102C90000000000000000000000000003FF07FF88E
:102CA000F87CF03CF03CF03CF00078003F000FC0B6
:102CB00003F00078003C003CF03CF03CF03CF87C39
:102CC0007FF83FF00000000000000000000000005E
:102CD000000000000000000000000000FFFCFFFCFE
:102CE000FFFCC78CC78C07800780078007800780A0
:102CF000078007800780078007800780078007809C
:102D00001FE01FE0000000000000000000000000C5
:102D1000000000000000000000000000F03CF03C5B
:102D2000F03CF03CF03CF03CF03CF03CF03CF03C43
:102D3000F03CF03CF03CF03CF03CF03CF03CF87CEB
:102D40007FF83FF0000000000000000000000000DD
:102D5000000000000000000000000000F03CF03C1B
:102D6000F03CF03CF03CF03CF03CF03CF03CF03C03
:102D7000F03CF03CF03CF87C7CF83FF01FE00FC0EA
:102D800007800300000000000000000000000000B9
:102D9000000000000000000000000000F03CF03CDB
:102DA000F03CF03CF03CF03CF03CF03CF33CF33CBD
:102DB000F33CF7BCF7BCFFFCFFFCFFFC7CF87CF8A5
:102DC00038703870000000000000000000000000B3
:102DD000000000000000000000000000F03CF03C9B
:102DE000787878783CF03CF01FE01FE00FC00FC00F
:102DF0000FC00FC01FE01FE03CF03CF078787878FF
:102E0000F03CF03C0000000000000000000000006A
:102E10000000000000000000000000003C3C3C3CC2
:102E20003C3C3C3C3C3C3C3C3C3C3E7C1FF80FF07A
:102E300007E003C003C003C003C003C003C003C056
:102E40000FF00FF000000000000000000000000084
:102E5000000000000000000000000000FFFCFFFC7C
:102E6000F03CE03CC03C007C00F801F003E007C00F
:102E70000F801F003E007C00F800F00CF01CF03CBE
:102E8000FFFCFFFC0000000000000000000000004C
:102E90000000000000000000000000000FF00FF034
:102EA0000F000F000F000F000F000F000F000F00AA
:102EB0000F000F000F000F000F000F000F000F009A
:102EC0000FF00FF000000000000000000000000004
:102ED000000000000000000000000000F000F00012
:102EE000780078003C003C001E001E000F000F0020
:102EF0000780078003C003C001E001E000F000F09C
:102F000000780078003C003C000000000000000059
:102F10000000000000000000000000000FF00FF0B3
:102F200000F000F000F000F000F000F000F000F021
:102F300000F000F000F000F000F000F000F000F011
:102F40000FF00FF000000000000000000000000083
:102F500000000000030007800FC01FE03CF07878FD
:102F6000F03CE01C00000000000000000000000039
:102F70000000000000000000000000000000000051
:102F80000000000000000000000000000000000041
:102F90000000000000000000000000000000000031
:102FA0000000000000000000000000000000000021
:102FB0000000000000000000000000000000000011
:102FC0000000000000000000FFFFFFFF0000000005
:102FD00000000000000000000F000F000F000F8035
:102FE00007C003C000000000000000000000000057
:102FF00000000000000000000000000000000000D1
:1030000000000000000000000000000000000000C0
:1030100000000000000000000000000000000000B0
:1030200000000000000000003FC03FE001F000F0A1
:103030003FF07FF0F8F0F0F0F0F0F0F0F0F0F9F0A1
:103040007FFC3F3C0000000000000000000000008A
:10305000000000000000000000000000FC00FC0078
:103060003C003C003C003C003F803FE03FF03CF82F
:103070003C7C3C3C3C3C3C3C3C3C3C3C3C3C3C7C10
:103080003FF83FF0000000000000000000000000DA
:103090000000000000000000000000000000000030
:1030A00000000000000000003FF07FF8F87CF03CDA
:1030B000F000F000F000F000F000F000F03CF87CD0
:1030C0007FF83FF00000000000000000000000005A
:1030D00000000000000000000000000003F003F00A
:1030E00000F000F000F000F00FF01FF03CF078F07E
:1030F000F0F0F0F0F0F0F0F0F0F0F0F0F0F079F047
:103100003FFC1F3C00000000000000000000000029
:1031100000000000000000000000000000000000AF
:1031200000000000000000003FF07FF8F87CF03C59
:10313000F03CFFFCFFFCF000F000F000F03CF87CFD
:103140007FF83FF0000000000000000000000000D9
:103150000000000000000000000000000FC01FE0A1
:103160003FF03CF03C703C003C003C00FF00FF00A6
:103170003C003C003C003C003C003C003C003C006F
:10318000FF00FF0000000000000000000000000041
:10319000000000000000000000000000000000002F
:1031A00000000000000000003F3C7FFCF9F0F0F060
:1031B000F0F0F0F0F0F0F0F0F0F0F0F0F0F0F8F007
:1031C0007FF03FF000F000F0F0F0F9F07FE03FC05A
:1031D000000000000000000000000000FC00FC00F7
:1031E0003C003C003C003C003CF03FF83FFC3F3CD6
:1031F0003C3C3C3C3C3C3C3C3C3C3C3C3C3C3C3C0F
:10320000FC3CFC3C0000000000000000000000004E
:1032100000000000000000000000000007800780A0
:1032200007800780000000001F801F800780078044
:103230000780078007800780078007800780078056
:103240001FE01FE000000000000000000000000080
:10325000000000000000000000000000003C003CF6
:10326000003C003C0000000000FC00FC003C003C76
:10327000003C003C003C003C003C003C003C003C6E
:10328000003C003C3C3C3C3C3C3C3E7C1FF80FF08E
:10329000000000000000000000000000FC00FC0036
:1032A0003C003C003C003C003C3C3C7C3CF83DF09D
:1032B0003FE03FC03FC03FE03DF03CF83C7C3C3C41
:1032C000FC3CFC3C0000000000000000000000008E
:1032D0000000000000000000000000001F801F80B0
:1032E00007800780078007800780078007800780A6
:1032F0000780078007800780078007800780078096
:103300001FE01FE0000000000000000000000000BF
:1033100000000000000000000000000000000000AD
:103320000000000000000000FCF0FFF8FFFCFFFCC4
:10333000F33CF33CF33CF33CF33CF33CF33CF33C15
:10334000F03CF03C00000000000000000000000025
:10335000000000000000000000000000000000006D
:103360000000000000000000F3F0FFF83E7C3C3C51
:103370003C3C3C3C3C3C3C3C3C3C3C3C3C3C3C3C8D
:103380003C3C3C3C0000000000000000000000004D
:10339000000000000000000000000000000000002D
:1033A00000000000000000003FF07FF8F87CF03CD7
:1033B000F03CF03CF03CF03CF03CF03CF03CF87C65
:1033C0007FF83FF000000000000000000000000057
:1033D00000000000000000000000000000000000ED
:1033E0000000000000000000F3F0FFF83E7C3C3CD1
:1033F0003C3C3C3C3C3C3C3C3C3C3C3C3C3C3C7CCD
:103400003FF83FF03C003C003C003C00FF00FF0068
:1034100000000000000000000000000000000000AC
:1034200000000000000000003F3C7FFCF9F0F0F0DD
:10343000F0F0F0F0F0F0F0F0F0F0F0F0F0F0F8F084
:103440007FF03FF000F000F000F000F003FC03FC20
:10345000000000000000000000000000000000006C
:103460000000000000000000F3F0FFF83F7C3E3C4D
:103470003C3C3C3C3C003C003C003C003C003C00F4
:10348000FF00FF000000000000000000000000003E
:10349000000000000000000000000000000000002C
:1034A00000000000000000003FF07FF8F07CF03CDE
:1034B00078003E001F8007E001F00078F03CF83C07
:1034C0007FF83FF000000000000000000000000056
:1034D00000000000000000000000000001000300E8
:1034E00007000F000F000F00FFF0FFF00F000F00AC
:1034F0000F000F000F000F000F000F000F1C0FBC7C
:1035000007F803F0000000000000000000000000C9
:1035100000000000000000000000000000000000AB
:103520000000000000000000F0F0F0F0F0F0F0F01B
:10353000F0F0F0F0F0F0F0F0F0F0F0F0F0F0F9F082
:103540007FFC3F3C00000000000000000000000085
:10355000000000000000000000000000000000006B
:1035600000000000000000003C3C3C3C3C3C3C3C7B
:103570003C3C3C3C3C3C3C3C3E7C1FF80FF007E0B4
:1035800003C00180000000000000000000000000F7
:10359000000000000000000000000000000000002B
:1035A0000000000000000000F03CF03CF03CF03C6B
:1035B000F33CF33CF33CF7BCF7BCFFFCFFFCFFFC27
:1035C0007CF83870000000000000000000000000DF
:1035D00000000000000000000000000000000000EB
:1035E0000000000000000000F03CF87C7CF83FF098
:1035F0001FE00FC00FC00FC00FC01FE03FF07CF8EE
:10360000F87CF03C0000000000000000000000001A
:1036100000000000000000000000000000000000AA
:103620000000000000000000F03CF03CF03CF03CEA
:10363000F03CF03CF03CF03CF03CF03CF03CF83C22
:103640007FFC3FFC003C007C00F801F0FFE0FFC085
:10365000000000000000000000000000000000006A
:103660000000000000000000FFFCFFFCF0F8F1F09B
:1036700003E007C00F801F003E007C00F83CF03CD8
:10368000FFFCFFFC00000000000000000000000044
:1036900000000000000000000000000000FC01FC31
:1036A00003E003C003C003C003C007803F003F0026
:1036B000078003C003C003C003C003C003C003E00E
:1036C00001FC00FC00000000000000000000000001
:1036D00000000000000000000000000003C003C064
:1036E00003C003C003C003C003C003C00000000048
:1036F00003C003C003C003C003C003C003C003C0B2
:1037000003C003C000000000000000000000000033
:103710000000000000000000000000003F003F80AB
:1037200007C003C003C003C003C001E000FC00FCED
:1037300001E003C003C003C003C003C003C007C04F
:103740003F803F000000000000000000000000007B
:103750000000000000000000000000003C1C7F3C56
:10376000FFFCF3F8E0F000000000000000000000A3
:103770000000000000000000000000000000000049
:103780000000000000000000000000000000000039
:103790000000000000000000000000000000000029
:1037A00000000000030007800FC01FE03FF07CF81E
:1037B000F87CF03CF03CF03CF03CF03CFFFCFFFCC3
:1037C00000000000000000000000000000000000F9
:1037D0000000000000000000000000000FF00FF0EB
:1037E0003C3C3C3CF00CF00CF000F000F000F00031
:1037F000F000F000F00CF00C3C3C3C3C0FF00FF003
:1038000000F000F0003C003C3FF03FF00000000002
:10381000000000000000000000000000F0F0F0F0E8
:103820000000000000000000F0F0F0F0F0F0F0F018
:10383000F0F0F0F0F0F0F0F0F0F0F0F0F0F0F0F088
:103840003F3C3F3C00000000000000000000000082
:10385000000000000000000000F000F003C003C002
:103860000F000F00000000003FF03FF0F03CF03C84
:10387000FFFCFFFCF000F000F000F000F03CF03C3A
:103880003FF03FF0000000000000000000000000DA
:103890000000000000000000030003000FC00FC084
:1038A0003CF03CF0000000003FC03FC000F000F0E2
:1038B0003FF03FF0F0F0F0F0F0F0F0F0F0F0F0F06A
:1038C0003F3C3F3C00000000000000000000000002
:1038D000000000000000000000000000F0F0F0F028
:1038E00000000000000000003FC03FC000F000F0FA
:1038F0003FF03FF0F0F0F0F0F0F0F0F0F0F0F0F02A
:103900003F3C3F3C000000000000000000000000C1
:1039100000000000000000003C003C000F000F0011
:1039200003C003C0000000003FC03FC000F000F033
:103930003FF03FF0F0F0F0F0F0F0F0F0F0F0F0F0E9
:103940003F3C3F3C00000000000000000000000081
:1039500000000000000000000FC00FC03CF03CF071
:103960000FC00FC0000000003FC03FC000F000F0DB
:103970003FF03FF0F0F0F0F0F0F0F0F0F0F0F0F0A9
:103980003F3C3F3C00000000000000000000000041
:103990000000000000000000000000000000000027
:1039A000000000000FF00FF03C3C3C3C3C003C00B1
:1039B0003C003C003C3C3C3C0FF00FF000F000F0C1
:1039C000003C003C0FF00FF0000000000000000081
:1039D0000000000000000000030003000FC00FC043
:1039E0003CF03CF0000000003FF03FF0F03CF03CC9
:1039F000FFFCFFFCF000F000F000F000F03CF03CB9
:103A00003FF03FF000000000000000000000000058
:103A1000000000000000000000000000F03CF03C4E
:103A200000000000000000003FF03FF0F03CF03CE0
:103A3000FFFCFFFCF000F000F000F000F03CF03C78
:103A40003FF03FF000000000000000000000000018
:103A500000000000000000003C003C000F000F00D0
:103A600003C003C0000000003FF03FF0F03CF03C1A
:103A7000FFFCFFFCF000F000F000F000F03CF03C38
:103A80003FF03FF0000000000000000000000000D8
:103A90000000000000000000000000003C3C3C3C36
:103AA00000000000000000000FC00FC003C003C0F2
:103AB00003C003C003C003C003C003C003C003C0EE
:103AC0000FF00FF0000000000000000000000000F8
:103AD000000000000000000003C003C00FF00FF062
:103AE0003C3C3C3C000000000FC00FC003C003C0C2
:103AF00003C003C003C003C003C003C003C003C0AE
:103B00000FF00FF0000000000000000000000000B7
:103B100000000000000000003C003C000F000F000F
:103B200003C003C0000000000FC00FC003C003C0EB
:103B300003C003C003C003C003C003C003C003C06D
:103B40000FF00FF000000000000000000000000077
:103B50000000000000000000F03CF03C000000000D
:103B6000030003000FC00FC03CF03CF0F03CF03C01
:103B7000F03CF03CFFFCFFFCF03CF03CF03CF03C47
:103B8000F03CF03C000000000000000000000000DD
:103B9000000000000FC00FC03CF03CF00FC00FC091
:103BA000000000000FC00FC03CF03CF0F03CF03CC7
:103BB000F03CF03CFFFCFFFCF03CF03CF03CF03C07
:103BC000F03CF03C0000000000000000000000009D
:103BD0000000000003C003C00F000F003C003C00C9
:103BE00000000000FFFCFFFC3C3C3C3C3C003C0077
:103BF0003FF03FF03C003C003C003C003C3C3C3C87
:103C0000FFFCFFFC000000000000000000000000BE
:103C100000000000000000000000000000000000A4
:103C20000000000000000000F0F0F0F03F3C3F3CDE
:103C30000F3C0F3C3FFC3FFCF3C0F3C0F3C0F3C0AC
:103C40003CFC3CFC00000000000000000000000004
:103C50000000000000000000000000000FFC0FFC4E
:103C60003CF03CF0F0F0F0F0F0F0F0F0FFFCFFFC86
:103C7000F0F0F0F0F0F0F0F0F0F0F0F0F0F0F0F044
:103C8000F0FCF0FC0000000000000000000000005C
:103C90000000000000000000030003000FC00FC080
:103CA0003CF03CF0000000003FF03FF0F03CF03C06
:103CB000F03CF03CF03CF03CF03CF03CF03CF03CA4
:103CC0003FF03FF000000000000000000000000096
:103CD000000000000000000000000000F03CF03C8C
:103CE00000000000000000003FF03FF0F03CF03C1E
:103CF000F03CF03CF03CF03CF03CF03CF03CF03C64
:103D00003FF03FF000000000000000000000000055
:103D100000000000000000003C003C000F000F000D
:103D200003C003C0000000003FF03FF0F03CF03C57
:103D3000F03CF03CF03CF03CF03CF03CF03CF03C23
:103D40003FF03FF000000000000000000000000015
:103D500000000000000000000F000F003FC03FC047
:103D6000F0F0F0F000000000F0F0F0F0F0F0F0F013
:103D7000F0F0F0F0F0F0F0F0F0F0F0F0F0F0F0F043
:103D80003F3C3F3C0000000000000000000000003D
:103D900000000000000000003C003C000F000F008D
:103DA00003C003C000000000F0F0F0F0F0F0F0F00D
:103DB000F0F0F0F0F0F0F0F0F0F0F0F0F0F0F0F003
:103DC0003F3C3F3C000000000000000000000000FD
:103DD000000000000000000000000000F03CF03C8B
:103DE0000000000000000000F03CF03CF03CF03C23
:103DF000F03CF03CF03CF03CF03CF03CF03CF03C63
:103E00003FFC3FFC003C003C00F000F03FC03FC0E6
:103E10000000000000000000F03CF03C000000004A
:103E20003FF03FF0F03CF03CF03CF03CF03CF03C2C
:103E3000F03CF03CF03CF03CF03CF03CF03CF03C22
:103E40003FF03FF000000000000000000000000014
:103E50000000000000000000F03CF03C000000000A
:103E6000F03CF03CF03CF03CF03CF03CF03CF03CF2
:103E7000F03CF03CF03CF03CF03CF03CF03CF03CE2
:103E80003FF03FF0000000000000000000000000D4
:103E9000000000000000000003C003C003C003C016
:103EA0000FF00FF03C3C3C3C3C003C003C003C0034
:103EB0003C003C003C3C3C3C0FF00FF003C003C016
:103EC00003C003C00000000000000000000000006C
:103ED00000000000000000000FC00FC03CF03CF0EC
:103EE0003C303C303C003C00FF00FF003C003C000C
:103EF0003C003C003C003C003C003C00FC3CFC3CEA
:103F0000FFF0FFF0000000000000000000000000D3
:103F10000000000000000000000000003C3C3C3CB1
:103F20003C3C3C3C0FF00FF003C003C03FFC3FFCA7
:103F300003C003C03FFC3FFC03C003C003C003C079
:103F400003C003C0000000000000000000000000EB
:103F50000000000000000000FFC0FFC0F0F0F0F023
:103F6000F0F0F0F0FFC0FFC0F030F030F0F0F0F013
:103F7000F3FCF3FCF0F0F0F0F0F0F0F0F0F0F0F023
:103F8000F03CF03C000000000000000000000000D9
:103F9000000000000000000000FC00FC03CF03CF85
:103FA00003C003C003C003C003C003C03FFC3FFC09
:103FB00003C003C003C003C003C003C003C003C0E9
:103FC00003C003C0F3C0F3C03F003F000000000087
:103FD000000000000000000003C003C00F000F003D
:103FE0003C003C00000000003FC03FC000F000F07B
:103FF0003FF03FF0F0F0F0F0F0F0F0F0F0F0F0F023
:104000003F3C3F3C000000000000000000000000BA
:10401000000000000000000000F000F003C003C03A
:104020000F000F00000000000FC00FC003C003C04E
:1040300003C003C003C003C003C003C003C003C068
:104040000FF00FF000000000000000000000000072
:10405000000000000000000003C003C00F000F00BC
:104060003C003C00000000003FF03FF0F03CF03C22
:10407000F03CF03CF03CF03CF03CF03CF03CF03CE0
:104080003FF03FF0000000000000000000000000D2
:10409000000000000000000003C003C00F000F007C
:1040A0003C003C0000000000F0F0F0F0F0F0F0F018
:1040B000F0F0F0F0F0F0F0F0F0F0F0F0F0F0F0F000
:1040C0003F3C3F3C000000000000000000000000FA
:1040D0000000000000000000000000003F3C3F3CEA
:1040E000F3F0F3F000000000F3F0F3F03C3C3C3C54
:1040F0003C3C3C3C3C3C3C3C3C3C3C3C3C3C3C3C00
:104100003C3C3C3C000000000000000000000000BF
:10411000000000003F3C3F3CF3F0F3F000000000E3
:10412000F03CF03CFC3CFC3CFF3CFF3CFFFCFFFC5B
:10413000F3FCF3FCF0FCF0FCF03CF03CF03CF03C19
:10414000F03CF03C00000000000000000000000017
:1041500000000000000000000FF00FF03CF03CF009
:104160003CF03CF00FFC0FFC000000003FFC3FFC6B
:10417000000000000000000000000000000000003F
:10418000000000000000000000000000000000002F
:1041900000000000000000000FC00FC03CF03CF029
:1041A0003CF03CF00FC00FC0000000003FF03FF0BB
:1041B00000000000000000000000000000000000FF
:1041C00000000000000000000000000000000000EF
:1041D0000000000000000000000000000F000F00C1
:1041E0000F000F00000000000F000F000F001F0065
:1041F0003E007C00F800F000F03CF03CF03CF87C25
:104200007FF83FF000000000000000000000000008
:10421000000000000000000000000000000000009E
:10422000000000000000000000000000FFFCFFFC98
:10423000F000F000F000F000F000F000F000F000FE
:10424000000000000000000000000000000000006E
:10425000000000000000000000000000000000005E
:10426000000000000000000000000000FFFCFFFC58
:10427000003C003C003C003C003C003C003C003C5E
:10428000000000000000000000000000000000002E
:104290000000000000000000F000F000F000F0005E
:1042A000F00CF00CF03CF03CF0F0F0F003C003C078
:1042B0000F000F003C003C00F3F0F3F0C03CC03CAA
:1042C00000F000F003C003C00FFC0FFC0000000072
:1042D0000000000000000000F000F000F000F0001E
:1042E000F00CF00CF03CF03CF0F0F0F003C003C038
:1042F0000F000F003C3C3C3CF0FCF0FCC3FCC3FC5A
:104300000FFC0FFC003C003C003C003C00000000A7
:1043100000000000000000000000000003C003C017
:1043200003C003C00000000003C003C003C007E0D7
:1043300007E007E00FF00FF00FF00FF00FF00FF0B5
:1043400007E003C0000000000000000000000000C3
:10435000000000000000000000000000000000005D
:1043600000000000000000000E1C1E3C3C7878F0AD
:10437000F1E0F1E078F03C781E3C0E1C00000000FB
:10438000000000000000000000000000000000002D
:10439000000000000000000000000000000000001D
:1043A0000000000000000000E1C0F1E078F03C787F
:1043B0001E3C1E3C3C7878F0F1E0E1C000000000BB
:1043C00000000000000000000000000000000000ED
:1043D0000000000003030303303030300303030305
:1043E0003030303003030303303030300303030335
:1043F0003030303003030303303030300303030325
:104400003030303003030303303030300303030314
:104410003030303033333333CCCCCCCC3333333314
:10442000CCCCCCCC33333333CCCCCCCC3333333394
:10443000CCCCCCCC33333333CCCCCCCC3333333384
:10444000CCCCCCCC33333333CCCCCCCC3333333374
:10445000CCCCCCCCF3F3F3F33F3F3F3FF3F3F3F398
:104460003F3F3F3FF3F3F3F33F3F3F3FF3F3F3F3BC
:104470003F3F3F3FF3F3F3F33F3F3F3FF3F3F3F3AC
:104480003F3F3F3FF3F3F3F33F3F3F3FF3F3F3F39C
:104490003F3F3F3F03C003C003C003C003C003C08E
:1044A00003C003C003C003C003C003C003C003C0F4
:1044B00003C003C003C003C003C003C003C003C0E4
:1044C00003C003C003C003C003C003C003C003C0D4
:1044D00003C003C003C003C003C003C003C003C0C4
:1044E00003C003C003C003C003C003C003C003C0B4
:1044F000FFC0FFC003C003C003C003C003C003C0AC
:1045000003C003C003C003C003C003C003C003C093
:1045100003C003C003C003C003C003C003C003C083
:1045200003C003C003C003C0FFC0FFC003C003C07B
:10453000FFC0FFC003C003C003C003C003C003C06B
:1045400003C003C003C003C003C003C003C003C053
:1045500003C003C00F3C0F3C0F3C0F3C0F3C0F3C13
:104560000F3C0F3C0F3C0F3C0F3C0F3C0F3C0F3CF3
:10457000FF3CFF3C0F3C0F3C0F3C0F3C0F3C0F3C03
:104580000F3C0F3C0F3C0F3C0F3C0F3C0F3C0F3CD3
:104590000F3C0F3C00000000000000000000000085
:1045A000000000000000000000000000000000000B
:1045B000FFFCFFFC0F3C0F3C0F3C0F3C0F3C0F3C43
:1045C0000F3C0F3C0F3C0F3C0F3C0F3C0F3C0F3C93
:1045D0000F3C0F3C00000000000000000000000045
:1045E0000000000000000000FFC0FFC003C003C0C7
:1045F000FFC0FFC003C003C003C003C003C003C0AB
:1046000003C003C003C003C003C003C003C003C092
:1046100003C003C00F3C0F3C0F3C0F3C0F3C0F3C52
:104620000F3C0F3C0F3C0F3CFF3CFF3C003C003C70
:10463000FF3CFF3C0F3C0F3C0F3C0F3C0F3C0F3C42
:104640000F3C0F3C0F3C0F3C0F3C0F3C0F3C0F3C12
:104650000F3C0F3C0F3C0F3C0F3C0F3C0F3C0F3C02
:104660000F3C0F3C0F3C0F3C0F3C0F3C0F3C0F3CF2
:104670000F3C0F3C0F3C0F3C0F3C0F3C0F3C0F3CE2
:104680000F3C0F3C0F3C0F3C0F3C0F3C0F3C0F3CD2
:104690000F3C0F3C00000000000000000000000084
:1046A0000000000000000000FFFCFFFC003C003C9C
:1046B000FF3CFF3C0F3C0F3C0F3C0F3C0F3C0F3CC2
:1046C0000F3C0F3C0F3C0F3C0F3C0F3C0F3C0F3C92
:1046D0000F3C0F3C0F3C0F3C0F3C0F3C0F3C0F3C82
:1046E0000F3C0F3C0F3C0F3CFF3CFF3C003C003CB0
:1046F000FFFCFFFC000000000000000000000000C4
:1047000000000000000000000000000000000000A9
:10471000000000000F3C0F3C0F3C0F3C0F3C0F3CD7
:104720000F3C0F3C0F3C0F3C0F3C0F3C0F3C0F3C31
:10473000FFFCFFFC00000000000000000000000083
:104740000000000000000000000000000000000069
:104750000000000003C003C003C003C003C003C0C7
:1047600003C003C003C003C0FFC0FFC003C003C039
:10477000FFC0FFC0000000000000000000000000BB
:104780000000000000000000000000000000000029
:104790000000000000000000000000000000000019
:1047A0000000000000000000000000000000000009
:1047B000FFC0FFC003C003C003C003C003C003C0E9
:1047C00003C003C003C003C003C003C003C003C0D1
:1047D00003C003C003C003C003C003C003C003C0C1
:1047E00003C003C003C003C003C003C003C003C0B1
:1047F00003FF03FF000000000000000000000000B5
:1048000000000000000000000000000000000000A8
:104810000000000003C003C003C003C003C003C006
:1048200003C003C003C003C003C003C003C003C070
:10483000FFFFFFFF0000000000000000000000007C
:104840000000000000000000000000000000000068
:104850000000000000000000000000000000000058
:104860000000000000000000000000000000000048
:10487000FFFFFFFF03C003C003C003C003C003C0AA
:1048800003C003C003C003C003C003C003C003C010
:1048900003C003C003C003C003C003C003C003C000
:1048A00003C003C003C003C003C003C003C003C0F0
:1048B00003FF03FF03C003C003C003C003C003C062
:1048C00003C003C003C003C003C003C003C003C0D0
:1048D00003C003C000000000000000000000000052
:1048E00000000000000000000000000000000000C8
:1048F000FFFFFFFF000000000000000000000000BC
:1049000000000000000000000000000000000000A7
:104910000000000003C003C003C003C003C003C005
:1049200003C003C003C003C003C003C003C003C06F
:10493000FFFFFFFF03C003C003C003C003C003C0E9
:1049400003C003C003C003C003C003C003C003C04F
:1049500003C003C003C003C003C003C003C003C03F
:1049600003C003C003C003C003FF03FF03C003C0B1
:1049700003FF03FF03C003C003C003C003C003C0A1
:1049800003C003C003C003C003C003C003C003C00F
:1049900003C003C00F3C0F3C0F3C0F3C0F3C0F3CCF
:1049A0000F3C0F3C0F3C0F3C0F3C0F3C0F3C0F3CAF
:1049B0000F3F0F3F0F3C0F3C0F3C0F3C0F3C0F3C99
:1049C0000F3C0F3C0F3C0F3C0F3C0F3C0F3C0F3C8F
:1049D0000F3C0F3C0F3C0F3C0F3C0F3C0F3C0F3C7F
:1049E0000F3C0F3C0F3C0F3C0F3F0F3F0F000F00E1
:1049F0000FFF0FFF0000000000000000000000009B
:104A000000000000000000000000000000000000A6
:104A10000000000000000000000000000000000096
:104A200000000000000000000FFF0FFF0F000F004C
:104A30000F3F0F3F0F3C0F3C0F3C0F3C0F3C0F3C18
:104A40000F3C0F3C0F3C0F3C0F3C0F3C0F3C0F3C0E
:104A50000F3C0F3C0F3C0F3C0F3C0F3C0F3C0F3CFE
:104A60000F3C0F3C0F3C0F3CFF3FFF3F000000009E
:104A7000FFFFFFFF0000000000000000000000003A
:104A80000000000000000000000000000000000026
:104A90000000000000000000000000000000000016
:104AA0000000000000000000FFFFFFFF000000000A
:104AB000FF3FFF3F0F3C0F3C0F3C0F3C0F3C0F3CB8
:104AC0000F3C0F3C0F3C0F3C0F3C0F3C0F3C0F3C8E
:104AD0000F3C0F3C0F3C0F3C0F3C0F3C0F3C0F3C7E
:104AE0000F3C0F3C0F3C0F3C0F3F0F3F0F000F00E0
:104AF0000F3F0F3F0F3C0F3C0F3C0F3C0F3C0F3C58
:104B00000F3C0F3C0F3C0F3C0F3C0F3C0F3C0F3C4D
:104B10000F3C0F3C000000000000000000000000FF
:104B20000000000000000000FFFFFFFF0000000089
:104B3000FFFFFFFF00000000000000000000000079
:104B40000000000000000000000000000000000065
:104B5000000000000F3C0F3C0F3C0F3C0F3C0F3C93
:104B60000F3C0F3C0F3C0F3CFF3FFF3F000000009D
:104B7000FF3FFF3F0F3C0F3C0F3C0F3C0F3C0F3CF7
:104B80000F3C0F3C0F3C0F3C0F3C0F3C0F3C0F3CCD
:104B90000F3C0F3C03C003C003C003C003C003C0ED
:104BA00003C003C003C003C0FFFFFFFF00000000FD
:104BB000FFFFFFFF000000000000000000000000F9
:104BC00000000000000000000000000000000000E5
:104BD000000000000F3C0F3C0F3C0F3C0F3C0F3C13
:104BE0000F3C0F3C0F3C0F3C0F3C0F3C0F3C0F3C6D
:104BF000FFFFFFFF000000000000000000000000B9
:104C000000000000000000000000000000000000A4
:104C10000000000000000000000000000000000094
:104C20000000000000000000FFFFFFFF0000000088
:104C3000FFFFFFFF03C003C003C003C003C003C0E6
:104C400003C003C003C003C003C003C003C003C04C
:104C500003C003C0000000000000000000000000CE
:104C60000000000000000000000000000000000044
:104C7000FFFFFFFF0F3C0F3C0F3C0F3C0F3C0F3C76
:104C80000F3C0F3C0F3C0F3C0F3C0F3C0F3C0F3CCC
:104C90000F3C0F3C0F3C0F3C0F3C0F3C0F3C0F3CBC
:104CA0000F3C0F3C0F3C0F3C0F3C0F3C0F3C0F3CAC
:104CB0000FFF0FFF000000000000000000000000D8
:104CC00000000000000000000000000000000000E4
:104CD0000000000003C003C003C003C003C003C042
:104CE00003C003C003C003C003FF03FF03C003C02E
:104CF00003FF03FF000000000000000000000000B0
:104D000000000000000000000000000000000000A3
:104D10000000000000000000000000000000000093
:104D2000000000000000000003FF03FF03C003C0F9
:104D300003FF03FF03C003C003C003C003C003C0DD
:104D400003C003C003C003C003C003C003C003C04B
:104D500003C003C0000000000000000000000000CD
:104D60000000000000000000000000000000000043
:104D70000FFF0FFF0F3C0F3C0F3C0F3C0F3C0F3C55
:104D80000F3C0F3C0F3C0F3C0F3C0F3C0F3C0F3CCB
:104D90000F3C0F3C0F3C0F3C0F3C0F3C0F3C0F3CBB
:104DA0000F3C0F3C0F3C0F3C0F3C0F3C0F3C0F3CAB
:104DB000FFFFFFFF0F3C0F3C0F3C0F3C0F3C0F3C35
:104DC0000F3C0F3C0F3C0F3C0F3C0F3C0F3C0F3C8B
:104DD0000F3C0F3C03C003C003C003C003C003C0AB
:104DE00003C003C003C003C0FFFFFFFF03C003C035
:104DF000FFFFFFFF03C003C003C003C003C003C025
:104E000003C003C003C003C003C003C003C003C08A
:104E100003C003C003C003C003C003C003C003C07A
:104E200003C003C003C003C003C003C003C003C06A
:104E3000FFC0FFC0000000000000000000000000F4
:104E40000000000000000000000000000000000062
:104E50000000000000000000000000000000000052
:104E60000000000000000000000000000000000042
:104E700003FF03FF03C003C003C003C003C003C09C
:104E800003C003C003C003C003C003C003C003C00A
:104E900003C003C0FFFFFFFFFFFFFFFFFFFFFFFF98
:104EA000FFFFFFFFFFFFFFFFFFFFFFFFFFFFFFFF12
:104EB000FFFFFFFFFFFFFFFFFFFFFFFFFFFFFFFF02
:104EC000FFFFFFFFFFFFFFFFFFFFFFFFFFFFFFFFF2
:104ED000FFFFFFFF000000000000000000000000D6
:104EE00000000000000000000000000000000000C2
:104EF000FFFFFFFFFFFFFFFFFFFFFFFFFFFFFFFFC2
:104F0000FFFFFFFFFFFFFFFFFFFFFFFFFFFFFFFFB1
:104F1000FFFFFFFFFF00FF00FF00FF00FF00FF009B
:104F2000FF00FF00FF00FF00FF00FF00FF00FF0089
:104F3000FF00FF00FF00FF00FF00FF00FF00FF0079
:104F4000FF00FF00FF00FF00FF00FF00FF00FF0069
:104F5000FF00FF0000FF00FF00FF00FF00FF00FF59
:104F600000FF00FF00FF00FF00FF00FF00FF00FF49
:104F700000FF00FF00FF00FF00FF00FF00FF00FF39
:104F800000FF00FF00FF00FF00FF00FF00FF00FF29
:104F900000FF00FFFFFFFFFFFFFFFFFFFFFFFFFF1F
:104FA000FFFFFFFFFFFFFFFFFFFFFFFFFFFFFFFF11
:104FB00000000000000000000000000000000000F1
:104FC00000000000000000000000000000000000E1
:104FD00000000000000000000000000000000000D1
:104FE00000000000000000003F3C3F3CF3F0F3F005
:104FF000F3C0F3C0F3C0F3C0F3C0F3C0F3F0F3F0B9
:105000003F3C3F3C000000000000000000000000AA
:105010000000000000000000000000003FC07FE032
:10502000F9F0F0F0F0F0F0F0F0F0F1E0F3C0F3E0C0
:10503000F1F0F0F8F07CF03CF03CF03CF03CF07C1F
:10504000F0F8F0F000000000000000000000000098
:10505000000000000000000000000000FFFCFFFC5A
:10506000F03CF03CF03CF03CF000F000F000F000D0
:10507000F000F000F000F000F000F000F000F000B0
:10508000F000F00000000000000000000000000040
:105090000000000000000000000000000000000010
:1050A00000000000FFFCFFFC3CF03CF03CF03CF05A
:1050B0003CF03CF03CF03CF03CF03CF03CF03CF090
:1050C0003CF03CF000000000000000000000000088
:1050D00000000000000000000000000000000000D0
:1050E000FFFCFFFCF03CF83C7C003E001F000F8002
:1050F00007C007C00F801F003E007C00F83CF03C5A
:10510000FFFCFFFC000000000000000000000000A9
:10511000000000000000000000000000000000008F
:1051200000000000000000003FFC3FFCF3C0F3C0A3
:10513000F3C0F3C0F3C0F3C0F3C0F3C0F3C0F3C0D7
:105140003F003F00000000000000000000000000E1
:10515000000000000000000000000000000000004F
:10516000000000003C3C3C3C3C3C3C3C3C3C3C3C6F
:105170003C3C3C3C3C3C3C3C3FF03FF03C003C0079
:105180003C003C00F000F0000000000000000000C7
:10519000000000000000000000000000000000000F
:1051A000000000003F3C3F3CF3F0F3F003C003C0BD
:1051B00003C003C003C003C003C003C003C003C0D7
:1051C00003C003C000000000000000000000000059
:1051D00000000000000000000000000000000000CF
:1051E0003FFC3FFC03C003C00FF00FF03C3C3C3CD5
:1051F0003C3C3C3C3C3C3C3C0FF00FF003C003C04B
:105200003FFC3FFC00000000000000000000000028
:10521000000000000000000000000000000000008E
:105220000FC00FC03CF03CF0F03CF03CF03CF03CD8
:10523000FFFCFFFCF03CF03CF03CF03C3CF03CF070
:105240000FC00FC0000000000000000000000000C0
:105250000000000000000000000000000FC00FC0B0
:105260003CF03CF0F03CF03CF03CF03CF03CF03CDE
:105270003CF03CF03CF03CF03CF03CF03CF03CF0CE
:10528000FCFCFCFC0000000000000000000000002E
:1052900000000000000000000000000003FC03FC10
:1052A0000F000F0003C003C000F000F00FFC0FFC64
:1052B0003C3C3C3C3C3C3C3C3C3C3C3C3C3C3C3C2E
:1052C0000FF00FF0000000000000000000000000E0
:1052D00000000000000000000000000000000000CE
:1052E00000000000000000003FFC3FFCF3CFF3CFC4
:1052F000F3CFF3CFF3CFF3CF3FFC3FFC0000000030
:10530000000000000000000000000000000000009D
:10531000000000000000000000000000000000008D
:10532000000F000F003C003C3FFC3FFCF3CFF3CFED
:10533000F3CFF3CFFF0FFF0F3FFC3FFC3C003C00DF
:10534000F000F0000000000000000000000000007D
:1053500000000000000000000000000003F003F067
:105360000F000F003C003C003C003C003FF03FF0D1
:105370003C003C003C003C003C003C000F000F00A7
:1053800003F003F000000000000000000000000037
:10539000000000000000000000000000000000000D
:1053A0003FF03FF0F03CF03CF03CF03CF03CF03C97
:1053B000F03CF03CF03CF03CF03CF03CF03CF03C8D
:1053C000F03CF03C00000000000000000000000085
:1053D00000000000000000000000000000000000CD
:1053E00000000000FFFCFFFC0000000000000000C7
:1053F000FFFCFFFC0000000000000000FFFCFFFCC1
:10540000000000000000000000000000000000009C
:10541000000000000000000000000000000000008C
:105420000000000007800780078007807FF87FF872
:105430007FF8078007800780078000000000FFFCDE
:10544000FFFCFFFC00000000000000000000000066
:1054500000000000000000000000000000003E000E
:105460001F000F8007C003E001F000F800F801F012
:1054700003E007C00F801F003E00000000007FF81F
:105480007FF87FF80000000000000000000000002E
:10549000000000000000000000000000000001F01B
:1054A00003E007C00F801F003E007C007C003E0030
:1054B0001F000F8007C003E001F0000000007FF82C
:1054C0007FF87FF8000000000000000000000000EE
:1054D00000000000000000000000000000FC01FED1
:1054E00003CF03CF03CF03CF03C003C003C003C068
:1054F00003C003C003C003C003C003C003C003C094
:1055000003C003C003C003C003C003C003C003C083
:1055100003C003C003C003C003C003C003C003C073
:1055200003C003C003C003C003C003C003C003C063
:1055300003C003C0F3C0F3C0F3C0F3C0F3C0F3C0B3
:105540007F803F000000000000000000000000001D
:10555000000000000000000000000000000000004B
:10556000000000000780078007800780000000001F
:10557000FFFCFFFCFFFC00000000078007800780A5
:105580000780000000000000000000000000000094
:10559000000000000000000000000000000000000B
:1055A00000000000000000003F3C3F3CF3F0F3F03F
:1055B000000000003F3C3F3CF3F0F3F0000000002F
:1055C00000000000000000000000000000000000DB
:1055D00000000000000000000FC01FE03CF03CF0A5
:1055E0003CF03CF01FE00FC0000000000000000095
:1055F00000000000000000000000000000000000AB
:10560000000000000000000000000000000000009A
:10561000000000000000000000000000000000008A
:10562000000000000000000000000000000000007A
:1056300003C003C003C003C000000000000000005E
:10564000000000000000000000000000000000005A
:10565000000000000000000000000000000000004A
:10566000000000000000000000000000000000003A
:105670000000000003C003C00000000000000000A4
:10568000000000000000000000000000000000001A
:10569000000000000000000000FF00FF00F000F02C
:1056A00000F000F000F000F000F000F000F000F07A
:1056B000FCF0FCF03CF03CF03CF03CF00FF00FF064
:1056C00003F003F0000000000000000000000000F4
:1056D0000000000000000000F3C0F7E03EF03CF0E6
:1056E0003CF03CF03CF03CF03CF03CF03CF03CF05A
:1056F00000000000000000000000000000000000AA
:105700000000000000000000000000000000000099
:1057100000000000000000003F003F00F3C0F3C0A5
:105720000F000F003C003C00F0C0F0C0FFC0FFC005
:105730000000000000000000000000000000000069
:105740000000000000000000000000000000000059
:105750000000000000000000000000000000000049
:10576000000000003FF03FF03FF03FF03FF03FF01F
:105770003FF03FF03FF03FF03FF03FF03FF03FF0B1
:105780000000000000000000000000000000000019
:105790000000000000000000000000000000000009
:1057A00000000000000000000000000000000000F9
:1057B00000000000000000000000000000000000E9
:1057C00000000000000000000000000000000000D9
:1057D00000000000000000000000000000000000C9
:1057E00000000000000000000000000000000000B9
:1057F00000000000000000000200040000000C0097
:1058000016001600130023003F80218040C0F3E003
:1058100000000000000000000800040000000C0070
:1058200016001600130023003F80218040C0F3E0E3
:1058300000000000000000000C00040000000C004C
:1058400016001600130023003F80218040C0F3E0C3
:1058500000000000000000000D00120000000C001D
:1058600016001600130023003F80218040C0F3E0A3
:1058700000000000000000000000000000000C001C
:1058800016001600130023003F80218040C0F3E083
:10589000000004000000000012000C0000000C00DA
:1058A00016001600130023003F80218040C0F3E063
:1058B000000000000040008012000C0000000C00FE
:1058C00016001600130023003F80218040C0F3E043
:1058D000000000000100008012000C0000000C001D
:1058E00016001600130023003F80218040C0F3E023
:1058F000000000000180008012000C0000000C007D
:1059000016001600130023003F80218040C0F3E002
:1059100000000000005000A012000C0000000C006D
:1059200016001600130023003F80218040C0F3E0E2
:10593000000000000000000012000C0000000C003D
:1059400016001600130023003F80218040C0F3E0C2
:10595000000004000000000000000C0012000C0019
:1059600016001600130023003F80218040C0F3E0A2
:10597000000000000000008001000C0012000C007C
:1059800016001600130023003F80218040C0F3E082
:10599000000000000000020001000C0012000C00DA
:1059A00016001600130023003F80218040C0F3E062
:1059B000000000000000030001000C0012000C00B9
:1059C00016001600130023003F80218040C0F3E042
:1059D0000000000001A0024000000C0012000C00BA
:1059E00016001600130023003F80218040C0F3E022
:1059F000000000000000000000000C0012000C007D
:105A000016001600130023003F80218040C0F3E001
:105A100000000400000000000000FE006300618040
:105A200060C060C0F0C0F0C060C061806300FE0074
:105A300000000000040008000000FF80618060801A
:105A4000640064007C006400640060806180FF800A
:105A500000000000100008000000FF8061806080EE
:105A6000640064007C006400640060806180FF80EA
:105A7000000000001C0004000800FF80318030801E
:105A8000320032003E003200320030803180FF8030
:105A9000000000001A0024000000FF806180608088
:105AA000640064007C006400640060806180FF80AA
:105AB00000000000000000000000FF8061806080A6
:105AC000640064007C006400640060806180FF808A
:105AD000000008000C0012000000FF806180608060
